S01700004763634170706C69636174696F6E332E7372656359
S11300000C9434000C9451000C9451000C94510045
S11300100C9451000C9451000C9451000C94510018
S11300200C9451000C9451000C9451000C9429012F
S11300300C9451000C9451000C9451000C945100F8
S11300400C9451000C9451000C946B010C94A70176
S11300500C9451000C9451000C9451000C945100D8
S11300600C9451000C94510011241FBECFEFD8E022
S1130070DEBFCDBF11E0A0E0B1E0EEE2F4E002C0EB
S113008005900D92A031B107D9F721E0A0E1B1E0CC
S113009001C01D92A431B207E1F70E94CC010C9477
S11300A015020C94000090E02AC0282F30E0092E9D
S11300B002C0359527950A94E2F720FF04C025B1C4
S11300C0216025B903C025B12E7F25B9E7ECF0E006
S11300D03197F1F700C0000025B1246025B9E7ECA1
S11300E0F0E03197F1F700C0000025B12B7F25B96E
S11300F0E7ECF0E03197F1F700C000009F5F983023
S1130100A0F285B18E7F85B90895CF93DF93CDB7E3
S1130110DEB72A970FB6F894DEBF0FBECDBF9AE0C4
S1130120E6E0F1E0DE01119601900D929A95E1F777
S1130130E1E0F0E0EC0FFD1FE80FF11D80810E946B
S1130140530087EC90E00197F1F700C0000085B1FF
S1130150826085B987EC90E00197F1F700C0000058
S113016085B18D7F85B987EC90E00197F1F700C0E8
S113017000002A960FB6F894DEBF0FBECDBFDF9104
S1130180CF9108950F931F93CF93DF938C019C011C
S11301903695279536952795ABE7B4E10E9406027C
S11301A0FC01F695E7959801ADECBCEC0E940602C3
S11301B0AC015695479556954795569547959A019E
S11301C00E940602EC01D695C795D695C795D6959B
S11301D0C795CE01880F991FCC0FDD1FCC0FDD1FF3
S11301E0CC0FDD1FC80FD91FCA018C1B9D0BEC015E
S11301F0CA01880F991F440F551F440F551F440F00
S1130200551F480F591F041B150B8E2F0E94850084
S11302108C2F0E948500802F0E948500DF91CF9152
S11302201F910F9108959C0140E050E060E271EA53
S113023087E090E00E94E401215031093093C50029
S11302402093C40088E98093C1008EE08093C200AB
S113025008951F920F920FB60F9211242F933F937C
S11302604F935F936F937F938F939F93AF93BF93BA
S1130270EF93FF9380911101909112010E94C200AB
S11302808091110190911201019690931201809333
S113029011018835924070F01092100110921301F0
S11302A0E1ECF0E0808180628083EFE6F0E0808121
S11302B08D7F8083FF91EF91BF91AF919F918F913B
S11302C07F916F915F914F913F912F910F900FBE4E
S11302D00F901F9018951F920F920FB60F92112432
S11302E08F93EF93FF938091C600893411F0893680
S11302F049F4EFE6F0E080818260808381E08093BE
S113030010011DC0803511F0803741F4EFE6F0E0B4
S113031080818D7F80831092100111C0833411F08D
S1130320833669F480911001811109C0EFE6F0E091
S11303308081826080831092120110921101FF91DA
S1130340EF918F910F900FBE0F901F9018951F92F1
S11303500F920FB60F9211248F93EF93FF93E091B6
S11303601301E73060F4F0E0E050FF4F80818093A8
S1130370C600809113018F5F8093130105C0E1ECE7
S1130380F0E080818F7D8083FF91EF918F910F90BA
S11303900FBE0F901F90189584B1876084B980E0D8
S11303A090E00E94C20080E895E20E941301E1E817
S11303B0F0E080818D6080838CE093E090938900ED
S11303C0809388007894FFCFA1E21A2EAA1BBB1B4E
S11303D0FD010DC0AA1FBB1FEE1FFF1FA217B3070D
S11303E0E407F50720F0A21BB30BE40BF50B661F23
S11303F0771F881F991F1A9469F7609570958095E7
S113040090959B01AC01BD01CF010895A29FB0015D
S1130410B39FC001A39F700D811D1124911DB29F34
S1110420700D811D1124911D0895F894FFCFD5
S113042E4D6178696D6F039F250D9949411F01092F
S9030000FC
